{
  "_format": "hh-sol-artifact-1",
  "contractName": "NFT",
  "sourceName": "contracts/NFT.sol",
  "abi": [
    {
      "inputs": [
        {
          "internalType": "address",
          "name": "marketplaceAddress",
          "type": "address"
        }
      ],
      "stateMutability": "nonpayable",
      "type": "constructor"
    },
    {
      "anonymous": false,
      "inputs": [
        {
          "indexed": true,
          "internalType": "address",
          "name": "owner",
          "type": "address"
        },
        {
          "indexed": true,
          "internalType": "address",
          "name": "approved",
          "type": "address"
        },
        {
          "indexed": true,
          "internalType": "uint256",
          "name": "tokenId",
          "type": "uint256"
        }
      ],
      "name": "Approval",
      "type": "event"
    },
    {
      "anonymous": false,
      "inputs": [
        {
          "indexed": true,
          "internalType": "address",
          "name": "owner",
          "type": "address"
        },
        {
          "indexed": true,
          "internalType": "address",
          "name": "operator",
          "type": "address"
        },
        {
          "indexed": false,
          "internalType": "bool",
          "name": "approved",
          "type": "bool"
        }
      ],
      "name": "ApprovalForAll",
      "type": "event"
    },
    {
      "anonymous": false,
      "inputs": [
        {
          "indexed": false,
          "internalType": "address",
          "name": "member",
          "type": "address"
        }
      ],
      "name": "MemberAdded",
      "type": "event"
    },
    {
      "anonymous": false,
      "inputs": [
        {
          "indexed": false,
          "internalType": "address",
          "name": "member",
          "type": "address"
        }
      ],
      "name": "MemberRemoved",
      "type": "event"
    },
    {
      "anonymous": false,
      "inputs": [
        {
          "indexed": true,
          "internalType": "address",
          "name": "previousOwner",
          "type": "address"
        },
        {
          "indexed": true,
          "internalType": "address",
          "name": "newOwner",
          "type": "address"
        }
      ],
      "name": "OwnershipTransferred",
      "type": "event"
    },
    {
      "anonymous": false,
      "inputs": [
        {
          "indexed": true,
          "internalType": "address",
          "name": "from",
          "type": "address"
        },
        {
          "indexed": true,
          "internalType": "address",
          "name": "to",
          "type": "address"
        },
        {
          "indexed": true,
          "internalType": "uint256",
          "name": "tokenId",
          "type": "uint256"
        }
      ],
      "name": "Transfer",
      "type": "event"
    },
    {
      "inputs": [
        {
          "internalType": "address",
          "name": "_member",
          "type": "address"
        }
      ],
      "name": "addMember",
      "outputs": [],
      "stateMutability": "nonpayable",
      "type": "function"
    },
    {
      "inputs": [
        {
          "internalType": "address",
          "name": "to",
          "type": "address"
        },
        {
          "internalType": "uint256",
          "name": "tokenId",
          "type": "uint256"
        }
      ],
      "name": "approve",
      "outputs": [],
      "stateMutability": "nonpayable",
      "type": "function"
    },
    {
      "inputs": [
        {
          "internalType": "address",
          "name": "owner",
          "type": "address"
        }
      ],
      "name": "balanceOf",
      "outputs": [
        {
          "internalType": "uint256",
          "name": "",
          "type": "uint256"
        }
      ],
      "stateMutability": "view",
      "type": "function"
    },
    {
      "inputs": [
        {
          "internalType": "string",
          "name": "tokenURI",
          "type": "string"
        }
      ],
      "name": "createToken",
      "outputs": [
        {
          "internalType": "uint256",
          "name": "",
          "type": "uint256"
        }
      ],
      "stateMutability": "nonpayable",
      "type": "function"
    },
    {
      "inputs": [
        {
          "internalType": "uint256",
          "name": "tokenId",
          "type": "uint256"
        }
      ],
      "name": "getApproved",
      "outputs": [
        {
          "internalType": "address",
          "name": "",
          "type": "address"
        }
      ],
      "stateMutability": "view",
      "type": "function"
    },
    {
      "inputs": [
        {
          "internalType": "address",
          "name": "owner",
          "type": "address"
        },
        {
          "internalType": "address",
          "name": "operator",
          "type": "address"
        }
      ],
      "name": "isApprovedForAll",
      "outputs": [
        {
          "internalType": "bool",
          "name": "",
          "type": "bool"
        }
      ],
      "stateMutability": "view",
      "type": "function"
    },
    {
      "inputs": [
        {
          "internalType": "address",
          "name": "_member",
          "type": "address"
        }
      ],
      "name": "isMember",
      "outputs": [
        {
          "internalType": "bool",
          "name": "",
          "type": "bool"
        }
      ],
      "stateMutability": "view",
      "type": "function"
    },
    {
      "inputs": [],
      "name": "name",
      "outputs": [
        {
          "internalType": "string",
          "name": "",
          "type": "string"
        }
      ],
      "stateMutability": "view",
      "type": "function"
    },
    {
      "inputs": [],
      "name": "owner",
      "outputs": [
        {
          "internalType": "address",
          "name": "",
          "type": "address"
        }
      ],
      "stateMutability": "view",
      "type": "function"
    },
    {
      "inputs": [
        {
          "internalType": "uint256",
          "name": "tokenId",
          "type": "uint256"
        }
      ],
      "name": "ownerOf",
      "outputs": [
        {
          "internalType": "address",
          "name": "",
          "type": "address"
        }
      ],
      "stateMutability": "view",
      "type": "function"
    },
    {
      "inputs": [
        {
          "internalType": "address",
          "name": "_member",
          "type": "address"
        }
      ],
      "name": "removeMember",
      "outputs": [],
      "stateMutability": "nonpayable",
      "type": "function"
    },
    {
      "inputs": [],
      "name": "renounceOwnership",
      "outputs": [],
      "stateMutability": "nonpayable",
      "type": "function"
    },
    {
      "inputs": [
        {
          "internalType": "address",
          "name": "from",
          "type": "address"
        },
        {
          "internalType": "address",
          "name": "to",
          "type": "address"
        },
        {
          "internalType": "uint256",
          "name": "tokenId",
          "type": "uint256"
        }
      ],
      "name": "safeTransferFrom",
      "outputs": [],
      "stateMutability": "nonpayable",
      "type": "function"
    },
    {
      "inputs": [
        {
          "internalType": "address",
          "name": "from",
          "type": "address"
        },
        {
          "internalType": "address",
          "name": "to",
          "type": "address"
        },
        {
          "internalType": "uint256",
          "name": "tokenId",
          "type": "uint256"
        },
        {
          "internalType": "bytes",
          "name": "_data",
          "type": "bytes"
        }
      ],
      "name": "safeTransferFrom",
      "outputs": [],
      "stateMutability": "nonpayable",
      "type": "function"
    },
    {
      "inputs": [
        {
          "internalType": "address",
          "name": "operator",
          "type": "address"
        },
        {
          "internalType": "bool",
          "name": "approved",
          "type": "bool"
        }
      ],
      "name": "setApprovalForAll",
      "outputs": [],
      "stateMutability": "nonpayable",
      "type": "function"
    },
    {
      "inputs": [
        {
          "internalType": "bytes4",
          "name": "interfaceId",
          "type": "bytes4"
        }
      ],
      "name": "supportsInterface",
      "outputs": [
        {
          "internalType": "bool",
          "name": "",
          "type": "bool"
        }
      ],
      "stateMutability": "view",
      "type": "function"
    },
    {
      "inputs": [],
      "name": "symbol",
      "outputs": [
        {
          "internalType": "string",
          "name": "",
          "type": "string"
        }
      ],
      "stateMutability": "view",
      "type": "function"
    },
    {
      "inputs": [
        {
          "internalType": "uint256",
          "name": "tokenId",
          "type": "uint256"
        }
      ],
      "name": "tokenURI",
      "outputs": [
        {
          "internalType": "string",
          "name": "",
          "type": "string"
        }
      ],
      "stateMutability": "view",
      "type": "function"
    },
    {
      "inputs": [
        {
          "internalType": "address",
          "name": "from",
          "type": "address"
        },
        {
          "internalType": "address",
          "name": "to",
          "type": "address"
        },
        {
          "internalType": "uint256",
          "name": "tokenId",
          "type": "uint256"
        }
      ],
      "name": "transferFrom",
      "outputs": [],
      "stateMutability": "nonpayable",
      "type": "function"
    },
    {
      "inputs": [
        {
          "internalType": "address",
          "name": "newOwner",
          "type": "address"
        }
      ],
      "name": "transferOwnership",
      "outputs": [],
      "stateMutability": "nonpayable",
      "type": "function"
    }
  ],
  "bytecode": "0x60806040523480156200001157600080fd5b506040516200382c3803806200382c8339818101604052810190620000379190620002d4565b6040518060400160405280600981526020017f4d657461766572736500000000000000000000000000000000000000000000008152506040518060400160405280600481526020017f4d455454000000000000000000000000000000000000000000000000000000008152508160009080519060200190620000bb9291906200020d565b508060019080519060200190620000d49291906200020d565b505050620000f7620000eb6200013f60201b60201c565b6200014760201b60201c565b80600960006101000a81548173ffffffffffffffffffffffffffffffffffffffff021916908373ffffffffffffffffffffffffffffffffffffffff16021790555050620003b3565b600033905090565b6000600760009054906101000a900473ffffffffffffffffffffffffffffffffffffffff16905081600760006101000a81548173ffffffffffffffffffffffffffffffffffffffff021916908373ffffffffffffffffffffffffffffffffffffffff1602179055508173ffffffffffffffffffffffffffffffffffffffff168173ffffffffffffffffffffffffffffffffffffffff167f8be0079c531659141344cd1fd0a4f28419497f9722a3daafe3b4186f6b6457e060405160405180910390a35050565b8280546200021b9062000334565b90600052602060002090601f0160209004810192826200023f57600085556200028b565b82601f106200025a57805160ff19168380011785556200028b565b828001600101855582156200028b579182015b828111156200028a5782518255916020019190600101906200026d565b5b5090506200029a91906200029e565b5090565b5b80821115620002b95760008160009055506001016200029f565b5090565b600081519050620002ce8162000399565b92915050565b600060208284031215620002e757600080fd5b6000620002f784828501620002bd565b91505092915050565b60006200030d8262000314565b9050919050565b600073ffffffffffffffffffffffffffffffffffffffff82169050919050565b600060028204905060018216806200034d57607f821691505b602082108114156200036457620003636200036a565b5b50919050565b7f4e487b7100000000000000000000000000000000000000000000000000000000600052602260045260246000fd5b620003a48162000300565b8114620003b057600080fd5b50565b61346980620003c36000396000f3fe608060405234801561001057600080fd5b506004361061012c5760003560e01c8063715018a6116100ad578063b88d4fde11610071578063b88d4fde14610341578063c87b56dd1461035d578063ca6d56dc1461038d578063e985e9c5146103a9578063f2fde38b146103d95761012c565b8063715018a6146102af5780638da5cb5b146102b957806395d89b41146102d7578063a22cb465146102f5578063a230c524146103115761012c565b806323b872dd116100f457806323b872dd146101e757806342842e0e1461020357806345576f941461021f5780636352211e1461024f57806370a082311461027f5761012c565b806301ffc9a71461013157806306fdde0314610161578063081812fc1461017f578063095ea7b3146101af5780630b1ca49a146101cb575b600080fd5b61014b60048036038101906101469190612293565b6103f5565b6040516101589190612789565b60405180910390f35b6101696104d7565b60405161017691906127a4565b60405180910390f35b61019960048036038101906101949190612326565b610569565b6040516101a69190612722565b60405180910390f35b6101c960048036038101906101c49190612257565b6105ee565b005b6101e560048036038101906101e091906120ec565b610706565b005b61020160048036038101906101fc9190612151565b610853565b005b61021d60048036038101906102189190612151565b6108b3565b005b610239600480360381019061023491906122e5565b6108d3565b6040516102469190612a66565b60405180910390f35b61026960048036038101906102649190612326565b61097f565b6040516102769190612722565b60405180910390f35b610299600480360381019061029491906120ec565b610a31565b6040516102a69190612a66565b60405180910390f35b6102b7610ae9565b005b6102c1610b71565b6040516102ce9190612722565b60405180910390f35b6102df610b9b565b6040516102ec91906127a4565b60405180910390f35b61030f600480360381019061030a919061221b565b610c2d565b005b61032b600480360381019061032691906120ec565b610c43565b6040516103389190612789565b60405180910390f35b61035b600480360381019061035691906121a0565b610c99565b005b61037760048036038101906103729190612326565b610cfb565b60405161038491906127a4565b60405180910390f35b6103a760048036038101906103a291906120ec565b610e4d565b005b6103c360048036038101906103be9190612115565b610fa4565b6040516103d09190612789565b60405180910390f35b6103f360048036038101906103ee91906120ec565b611038565b005b60007f80ac58cd000000000000000000000000000000000000000000000000000000007bffffffffffffffffffffffffffffffffffffffffffffffffffffffff1916827bffffffffffffffffffffffffffffffffffffffffffffffffffffffff191614806104c057507f5b5e139f000000000000000000000000000000000000000000000000000000007bffffffffffffffffffffffffffffffffffffffffffffffffffffffff1916827bffffffffffffffffffffffffffffffffffffffffffffffffffffffff1916145b806104d057506104cf82611130565b5b9050919050565b6060600080546104e690612cbc565b80601f016020809104026020016040519081016040528092919081815260200182805461051290612cbc565b801561055f5780601f106105345761010080835404028352916020019161055f565b820191906000526020600020905b81548152906001019060200180831161054257829003601f168201915b5050505050905090565b60006105748261119a565b6105b3576040517f08c379a00000000000000000000000000000000000000000000000000000000081526004016105aa90612986565b60405180910390fd5b6004600083815260200190815260200160002060009054906101000a900473ffffffffffffffffffffffffffffffffffffffff169050919050565b60006105f98261097f565b90508073ffffffffffffffffffffffffffffffffffffffff168373ffffffffffffffffffffffffffffffffffffffff16141561066a576040517f08c379a000000000000000000000000000000000000000000000000000000000815260040161066190612a06565b60405180910390fd5b8073ffffffffffffffffffffffffffffffffffffffff16610689611206565b73ffffffffffffffffffffffffffffffffffffffff1614806106b857506106b7816106b2611206565b610fa4565b5b6106f7576040517f08c379a00000000000000000000000000000000000000000000000000000000081526004016106ee906128a6565b60405180910390fd5b610701838361120e565b505050565b61070e611206565b73ffffffffffffffffffffffffffffffffffffffff1661072c610b71565b73ffffffffffffffffffffffffffffffffffffffff1614610782576040517f08c379a0000000000000000000000000000000000000000000000000000000008152600401610779906129a6565b60405180910390fd5b61078b81610c43565b6107ca576040517f08c379a00000000000000000000000000000000000000000000000000000000081526004016107c1906128c6565b60405180910390fd5b600a60008273ffffffffffffffffffffffffffffffffffffffff1673ffffffffffffffffffffffffffffffffffffffff16815260200190815260200160002060006101000a81549060ff02191690557f6e76fb4c77256006d9c38ec7d82b45a8c8f3c27b1d6766fffc42dfb8de684492816040516108489190612722565b60405180910390a150565b61086461085e611206565b826112c7565b6108a3576040517f08c379a000000000000000000000000000000000000000000000000000000000815260040161089a90612a26565b60405180910390fd5b6108ae8383836113a5565b505050565b6108ce83838360405180602001604052806000815250610c99565b505050565b60006108df6008611601565b60006108eb6008611617565b90506108f633610c43565b610935576040517f08c379a000000000000000000000000000000000000000000000000000000000815260040161092c90612886565b60405180910390fd5b61093f3382611625565b61094981846117f3565b610976600960009054906101000a900473ffffffffffffffffffffffffffffffffffffffff166001610c2d565b80915050919050565b6000806002600084815260200190815260200160002060009054906101000a900473ffffffffffffffffffffffffffffffffffffffff169050600073ffffffffffffffffffffffffffffffffffffffff168173ffffffffffffffffffffffffffffffffffffffff161415610a28576040517f08c379a0000000000000000000000000000000000000000000000000000000008152600401610a1f90612906565b60405180910390fd5b80915050919050565b60008073ffffffffffffffffffffffffffffffffffffffff168273ffffffffffffffffffffffffffffffffffffffff161415610aa2576040517f08c379a0000000000000000000000000000000000000000000000000000000008152600401610a99906128e6565b60405180910390fd5b600360008373ffffffffffffffffffffffffffffffffffffffff1673ffffffffffffffffffffffffffffffffffffffff168152602001908152602001600020549050919050565b610af1611206565b73ffffffffffffffffffffffffffffffffffffffff16610b0f610b71565b73ffffffffffffffffffffffffffffffffffffffff1614610b65576040517f08c379a0000000000000000000000000000000000000000000000000000000008152600401610b5c906129a6565b60405180910390fd5b610b6f6000611867565b565b6000600760009054906101000a900473ffffffffffffffffffffffffffffffffffffffff16905090565b606060018054610baa90612cbc565b80601f0160208091040260200160405190810160405280929190818152602001828054610bd690612cbc565b8015610c235780601f10610bf857610100808354040283529160200191610c23565b820191906000526020600020905b815481529060010190602001808311610c0657829003601f168201915b5050505050905090565b610c3f610c38611206565b838361192d565b5050565b6000600a60008373ffffffffffffffffffffffffffffffffffffffff1673ffffffffffffffffffffffffffffffffffffffff16815260200190815260200160002060009054906101000a900460ff169050919050565b610caa610ca4611206565b836112c7565b610ce9576040517f08c379a0000000000000000000000000000000000000000000000000000000008152600401610ce090612a26565b60405180910390fd5b610cf584848484611a9a565b50505050565b6060610d068261119a565b610d45576040517f08c379a0000000000000000000000000000000000000000000000000000000008152600401610d3c90612966565b60405180910390fd5b6000600660008481526020019081526020016000208054610d6590612cbc565b80601f0160208091040260200160405190810160405280929190818152602001828054610d9190612cbc565b8015610dde5780601f10610db357610100808354040283529160200191610dde565b820191906000526020600020905b815481529060010190602001808311610dc157829003601f168201915b505050505090506000610def611af6565b9050600081511415610e05578192505050610e48565b600082511115610e3a578082604051602001610e229291906126fe565b60405160208183030381529060405292505050610e48565b610e4384611b0d565b925050505b919050565b610e55611206565b73ffffffffffffffffffffffffffffffffffffffff16610e73610b71565b73ffffffffffffffffffffffffffffffffffffffff1614610ec9576040517f08c379a0000000000000000000000000000000000000000000000000000000008152600401610ec0906129a6565b60405180910390fd5b610ed281610c43565b15610f12576040517f08c379a0000000000000000000000000000000000000000000000000000000008152600401610f0990612a46565b60405180910390fd5b6001600a60008373ffffffffffffffffffffffffffffffffffffffff1673ffffffffffffffffffffffffffffffffffffffff16815260200190815260200160002060006101000a81548160ff0219169083151502179055507fb251eb052afc73ffd02ffe85ad79990a8b3fed60d76dbc2fa2fdd7123dffd91481604051610f999190612722565b60405180910390a150565b6000600560008473ffffffffffffffffffffffffffffffffffffffff1673ffffffffffffffffffffffffffffffffffffffff16815260200190815260200160002060008373ffffffffffffffffffffffffffffffffffffffff1673ffffffffffffffffffffffffffffffffffffffff16815260200190815260200160002060009054906101000a900460ff16905092915050565b611040611206565b73ffffffffffffffffffffffffffffffffffffffff1661105e610b71565b73ffffffffffffffffffffffffffffffffffffffff16146110b4576040517f08c379a00000000000000000000000000000000000000000000000000000000081526004016110ab906129a6565b60405180910390fd5b600073ffffffffffffffffffffffffffffffffffffffff168173ffffffffffffffffffffffffffffffffffffffff161415611124576040517f08c379a000000000000000000000000000000000000000000000000000000000815260040161111b906127e6565b60405180910390fd5b61112d81611867565b50565b60007f01ffc9a7000000000000000000000000000000000000000000000000000000007bffffffffffffffffffffffffffffffffffffffffffffffffffffffff1916827bffffffffffffffffffffffffffffffffffffffffffffffffffffffff1916149050919050565b60008073ffffffffffffffffffffffffffffffffffffffff166002600084815260200190815260200160002060009054906101000a900473ffffffffffffffffffffffffffffffffffffffff1673ffffffffffffffffffffffffffffffffffffffff1614159050919050565b600033905090565b816004600083815260200190815260200160002060006101000a81548173ffffffffffffffffffffffffffffffffffffffff021916908373ffffffffffffffffffffffffffffffffffffffff160217905550808273ffffffffffffffffffffffffffffffffffffffff166112818361097f565b73ffffffffffffffffffffffffffffffffffffffff167f8c5be1e5ebec7d5bd14f71427d1e84f3dd0314c0f7b2291e5b200ac8c7c3b92560405160405180910390a45050565b60006112d28261119a565b611311576040517f08c379a000000000000000000000000000000000000000000000000000000000815260040161130890612866565b60405180910390fd5b600061131c8361097f565b90508073ffffffffffffffffffffffffffffffffffffffff168473ffffffffffffffffffffffffffffffffffffffff16148061138b57508373ffffffffffffffffffffffffffffffffffffffff1661137384610569565b73ffffffffffffffffffffffffffffffffffffffff16145b8061139c575061139b8185610fa4565b5b91505092915050565b8273ffffffffffffffffffffffffffffffffffffffff166113c58261097f565b73ffffffffffffffffffffffffffffffffffffffff161461141b576040517f08c379a0000000000000000000000000000000000000000000000000000000008152600401611412906129c6565b60405180910390fd5b600073ffffffffffffffffffffffffffffffffffffffff168273ffffffffffffffffffffffffffffffffffffffff16141561148b576040517f08c379a000000000000000000000000000000000000000000000000000000000815260040161148290612826565b60405180910390fd5b611496838383611bb4565b6114a160008261120e565b6001600360008573ffffffffffffffffffffffffffffffffffffffff1673ffffffffffffffffffffffffffffffffffffffff16815260200190815260200160002060008282546114f19190612bd2565b925050819055506001600360008473ffffffffffffffffffffffffffffffffffffffff1673ffffffffffffffffffffffffffffffffffffffff16815260200190815260200160002060008282546115489190612b4b565b92505081905550816002600083815260200190815260200160002060006101000a81548173ffffffffffffffffffffffffffffffffffffffff021916908373ffffffffffffffffffffffffffffffffffffffff160217905550808273ffffffffffffffffffffffffffffffffffffffff168473ffffffffffffffffffffffffffffffffffffffff167fddf252ad1be2c89b69c2b068fc378daa952ba7f163c4a11628f55a4df523b3ef60405160405180910390a4505050565b6001816000016000828254019250508190555050565b600081600001549050919050565b600073ffffffffffffffffffffffffffffffffffffffff168273ffffffffffffffffffffffffffffffffffffffff161415611695576040517f08c379a000000000000000000000000000000000000000000000000000000000815260040161168c90612946565b60405180910390fd5b61169e8161119a565b156116de576040517f08c379a00000000000000000000000000000000000000000000000000000000081526004016116d590612806565b60405180910390fd5b6116ea60008383611bb4565b6001600360008473ffffffffffffffffffffffffffffffffffffffff1673ffffffffffffffffffffffffffffffffffffffff168152602001908152602001600020600082825461173a9190612b4b565b92505081905550816002600083815260200190815260200160002060006101000a81548173ffffffffffffffffffffffffffffffffffffffff021916908373ffffffffffffffffffffffffffffffffffffffff160217905550808273ffffffffffffffffffffffffffffffffffffffff16600073ffffffffffffffffffffffffffffffffffffffff167fddf252ad1be2c89b69c2b068fc378daa952ba7f163c4a11628f55a4df523b3ef60405160405180910390a45050565b6117fc8261119a565b61183b576040517f08c379a000000000000000000000000000000000000000000000000000000000815260040161183290612926565b60405180910390fd5b80600660008481526020019081526020016000209080519060200190611862929190611f10565b505050565b6000600760009054906101000a900473ffffffffffffffffffffffffffffffffffffffff16905081600760006101000a81548173ffffffffffffffffffffffffffffffffffffffff021916908373ffffffffffffffffffffffffffffffffffffffff1602179055508173ffffffffffffffffffffffffffffffffffffffff168173ffffffffffffffffffffffffffffffffffffffff167f8be0079c531659141344cd1fd0a4f28419497f9722a3daafe3b4186f6b6457e060405160405180910390a35050565b8173ffffffffffffffffffffffffffffffffffffffff168373ffffffffffffffffffffffffffffffffffffffff16141561199c576040517f08c379a000000000000000000000000000000000000000000000000000000000815260040161199390612846565b60405180910390fd5b80600560008573ffffffffffffffffffffffffffffffffffffffff1673ffffffffffffffffffffffffffffffffffffffff16815260200190815260200160002060008473ffffffffffffffffffffffffffffffffffffffff1673ffffffffffffffffffffffffffffffffffffffff16815260200190815260200160002060006101000a81548160ff0219169083151502179055508173ffffffffffffffffffffffffffffffffffffffff168373ffffffffffffffffffffffffffffffffffffffff167f17307eab39ab6107e8899845ad3d59bd9653f200f220920489ca2b5937696c3183604051611a8d9190612789565b60405180910390a3505050565b611aa58484846113a5565b611ab184848484611bb9565b611af0576040517f08c379a0000000000000000000000000000000000000000000000000000000008152600401611ae7906127c6565b60405180910390fd5b50505050565b606060405180602001604052806000815250905090565b6060611b188261119a565b611b57576040517f08c379a0000000000000000000000000000000000000000000000000000000008152600401611b4e906129e6565b60405180910390fd5b6000611b61611af6565b90506000815111611b815760405180602001604052806000815250611bac565b80611b8b84611d50565b604051602001611b9c9291906126fe565b6040516020818303038152906040525b915050919050565b505050565b6000611bda8473ffffffffffffffffffffffffffffffffffffffff16611efd565b15611d43578373ffffffffffffffffffffffffffffffffffffffff1663150b7a02611c03611206565b8786866040518563ffffffff1660e01b8152600401611c25949392919061273d565b602060405180830381600087803b158015611c3f57600080fd5b505af1925050508015611c7057506040513d601f19601f82011682018060405250810190611c6d91906122bc565b60015b611cf3573d8060008114611ca0576040519150601f19603f3d011682016040523d82523d6000602084013e611ca5565b606091505b50600081511415611ceb576040517f08c379a0000000000000000000000000000000000000000000000000000000008152600401611ce2906127c6565b60405180910390fd5b805181602001fd5b63150b7a0260e01b7bffffffffffffffffffffffffffffffffffffffffffffffffffffffff1916817bffffffffffffffffffffffffffffffffffffffffffffffffffffffff191614915050611d48565b600190505b949350505050565b60606000821415611d98576040518060400160405280600181526020017f30000000000000000000000000000000000000000000000000000000000000008152509050611ef8565b600082905060005b60008214611dca578080611db390612d1f565b915050600a82611dc39190612ba1565b9150611da0565b60008167ffffffffffffffff811115611e0c577f4e487b7100000000000000000000000000000000000000000000000000000000600052604160045260246000fd5b6040519080825280601f01601f191660200182016040528015611e3e5781602001600182028036833780820191505090505b5090505b60008514611ef157600182611e579190612bd2565b9150600a85611e669190612d68565b6030611e729190612b4b565b60f81b818381518110611eae577f4e487b7100000000000000000000000000000000000000000000000000000000600052603260045260246000fd5b60200101907effffffffffffffffffffffffffffffffffffffffffffffffffffffffffffff1916908160001a905350600a85611eea9190612ba1565b9450611e42565b8093505050505b919050565b600080823b905060008111915050919050565b828054611f1c90612cbc565b90600052602060002090601f016020900481019282611f3e5760008555611f85565b82601f10611f5757805160ff1916838001178555611f85565b82800160010185558215611f85579182015b82811115611f84578251825591602001919060010190611f69565b5b509050611f929190611f96565b5090565b5b80821115611faf576000816000905550600101611f97565b5090565b6000611fc6611fc184612aa6565b612a81565b905082815260208101848484011115611fde57600080fd5b611fe9848285612c7a565b509392505050565b6000612004611fff84612ad7565b612a81565b90508281526020810184848401111561201c57600080fd5b612027848285612c7a565b509392505050565b60008135905061203e816133d7565b92915050565b600081359050612053816133ee565b92915050565b60008135905061206881613405565b92915050565b60008151905061207d81613405565b92915050565b600082601f83011261209457600080fd5b81356120a4848260208601611fb3565b91505092915050565b600082601f8301126120be57600080fd5b81356120ce848260208601611ff1565b91505092915050565b6000813590506120e68161341c565b92915050565b6000602082840312156120fe57600080fd5b600061210c8482850161202f565b91505092915050565b6000806040838503121561212857600080fd5b60006121368582860161202f565b92505060206121478582860161202f565b9150509250929050565b60008060006060848603121561216657600080fd5b60006121748682870161202f565b93505060206121858682870161202f565b9250506040612196868287016120d7565b9150509250925092565b600080600080608085870312156121b657600080fd5b60006121c48782880161202f565b94505060206121d58782880161202f565b93505060406121e6878288016120d7565b925050606085013567ffffffffffffffff81111561220357600080fd5b61220f87828801612083565b91505092959194509250565b6000806040838503121561222e57600080fd5b600061223c8582860161202f565b925050602061224d85828601612044565b9150509250929050565b6000806040838503121561226a57600080fd5b60006122788582860161202f565b9250506020612289858286016120d7565b9150509250929050565b6000602082840312156122a557600080fd5b60006122b384828501612059565b91505092915050565b6000602082840312156122ce57600080fd5b60006122dc8482850161206e565b91505092915050565b6000602082840312156122f757600080fd5b600082013567ffffffffffffffff81111561231157600080fd5b61231d848285016120ad565b91505092915050565b60006020828403121561233857600080fd5b6000612346848285016120d7565b91505092915050565b61235881612c06565b82525050565b61236781612c18565b82525050565b600061237882612b08565b6123828185612b1e565b9350612392818560208601612c89565b61239b81612e55565b840191505092915050565b60006123b182612b13565b6123bb8185612b2f565b93506123cb818560208601612c89565b6123d481612e55565b840191505092915050565b60006123ea82612b13565b6123f48185612b40565b9350612404818560208601612c89565b80840191505092915050565b600061241d603283612b2f565b915061242882612e66565b604082019050919050565b6000612440602683612b2f565b915061244b82612eb5565b604082019050919050565b6000612463601c83612b2f565b915061246e82612f04565b602082019050919050565b6000612486602483612b2f565b915061249182612f2d565b604082019050919050565b60006124a9601983612b2f565b91506124b482612f7c565b602082019050919050565b60006124cc602c83612b2f565b91506124d782612fa5565b604082019050919050565b60006124ef601683612b2f565b91506124fa82612ff4565b602082019050919050565b6000612512603883612b2f565b915061251d8261301d565b604082019050919050565b6000612535601883612b2f565b91506125408261306c565b602082019050919050565b6000612558602a83612b2f565b915061256382613095565b604082019050919050565b600061257b602983612b2f565b9150612586826130e4565b604082019050919050565b600061259e602e83612b2f565b91506125a982613133565b604082019050919050565b60006125c1602083612b2f565b91506125cc82613182565b602082019050919050565b60006125e4603183612b2f565b91506125ef826131ab565b604082019050919050565b6000612607602c83612b2f565b9150612612826131fa565b604082019050919050565b600061262a602083612b2f565b915061263582613249565b602082019050919050565b600061264d602983612b2f565b915061265882613272565b604082019050919050565b6000612670602f83612b2f565b915061267b826132c1565b604082019050919050565b6000612693602183612b2f565b915061269e82613310565b604082019050919050565b60006126b6603183612b2f565b91506126c18261335f565b604082019050919050565b60006126d9601a83612b2f565b91506126e4826133ae565b602082019050919050565b6126f881612c70565b82525050565b600061270a82856123df565b915061271682846123df565b91508190509392505050565b6000602082019050612737600083018461234f565b92915050565b6000608082019050612752600083018761234f565b61275f602083018661234f565b61276c60408301856126ef565b818103606083015261277e818461236d565b905095945050505050565b600060208201905061279e600083018461235e565b92915050565b600060208201905081810360008301526127be81846123a6565b905092915050565b600060208201905081810360008301526127df81612410565b9050919050565b600060208201905081810360008301526127ff81612433565b9050919050565b6000602082019050818103600083015261281f81612456565b9050919050565b6000602082019050818103600083015261283f81612479565b9050919050565b6000602082019050818103600083015261285f8161249c565b9050919050565b6000602082019050818103600083015261287f816124bf565b9050919050565b6000602082019050818103600083015261289f816124e2565b9050919050565b600060208201905081810360008301526128bf81612505565b9050919050565b600060208201905081810360008301526128df81612528565b9050919050565b600060208201905081810360008301526128ff8161254b565b9050919050565b6000602082019050818103600083015261291f8161256e565b9050919050565b6000602082019050818103600083015261293f81612591565b9050919050565b6000602082019050818103600083015261295f816125b4565b9050919050565b6000602082019050818103600083015261297f816125d7565b9050919050565b6000602082019050818103600083015261299f816125fa565b9050919050565b600060208201905081810360008301526129bf8161261d565b9050919050565b600060208201905081810360008301526129df81612640565b9050919050565b600060208201905081810360008301526129ff81612663565b9050919050565b60006020820190508181036000830152612a1f81612686565b9050919050565b60006020820190508181036000830152612a3f816126a9565b9050919050565b60006020820190508181036000830152612a5f816126cc565b9050919050565b6000602082019050612a7b60008301846126ef565b92915050565b6000612a8b612a9c565b9050612a978282612cee565b919050565b6000604051905090565b600067ffffffffffffffff821115612ac157612ac0612e26565b5b612aca82612e55565b9050602081019050919050565b600067ffffffffffffffff821115612af257612af1612e26565b5b612afb82612e55565b9050602081019050919050565b600081519050919050565b600081519050919050565b600082825260208201905092915050565b600082825260208201905092915050565b600081905092915050565b6000612b5682612c70565b9150612b6183612c70565b9250827fffffffffffffffffffffffffffffffffffffffffffffffffffffffffffffffff03821115612b9657612b95612d99565b5b828201905092915050565b6000612bac82612c70565b9150612bb783612c70565b925082612bc757612bc6612dc8565b5b828204905092915050565b6000612bdd82612c70565b9150612be883612c70565b925082821015612bfb57612bfa612d99565b5b828203905092915050565b6000612c1182612c50565b9050919050565b60008115159050919050565b60007fffffffff0000000000000000000000000000000000000000000000000000000082169050919050565b600073ffffffffffffffffffffffffffffffffffffffff82169050919050565b6000819050919050565b82818337600083830152505050565b60005b83811015612ca7578082015181840152602081019050612c8c565b83811115612cb6576000848401525b50505050565b60006002820490506001821680612cd457607f821691505b60208210811415612ce857612ce7612df7565b5b50919050565b612cf782612e55565b810181811067ffffffffffffffff82111715612d1657612d15612e26565b5b80604052505050565b6000612d2a82612c70565b91507fffffffffffffffffffffffffffffffffffffffffffffffffffffffffffffffff821415612d5d57612d5c612d99565b5b600182019050919050565b6000612d7382612c70565b9150612d7e83612c70565b925082612d8e57612d8d612dc8565b5b828206905092915050565b7f4e487b7100000000000000000000000000000000000000000000000000000000600052601160045260246000fd5b7f4e487b7100000000000000000000000000000000000000000000000000000000600052601260045260246000fd5b7f4e487b7100000000000000000000000000000000000000000000000000000000600052602260045260246000fd5b7f4e487b7100000000000000000000000000000000000000000000000000000000600052604160045260246000fd5b6000601f19601f8301169050919050565b7f4552433732313a207472616e7366657220746f206e6f6e20455243373231526560008201527f63656976657220696d706c656d656e7465720000000000000000000000000000602082015250565b7f4f776e61626c653a206e6577206f776e657220697320746865207a65726f206160008201527f6464726573730000000000000000000000000000000000000000000000000000602082015250565b7f4552433732313a20746f6b656e20616c7265616479206d696e74656400000000600082015250565b7f4552433732313a207472616e7366657220746f20746865207a65726f2061646460008201527f7265737300000000000000000000000000000000000000000000000000000000602082015250565b7f4552433732313a20617070726f766520746f2063616c6c657200000000000000600082015250565b7f4552433732313a206f70657261746f7220717565727920666f72206e6f6e657860008201527f697374656e7420746f6b656e0000000000000000000000000000000000000000602082015250565b7f43616c6c6572206973206e6f742061206d656d62657200000000000000000000600082015250565b7f4552433732313a20617070726f76652063616c6c6572206973206e6f74206f7760008201527f6e6572206e6f7220617070726f76656420666f7220616c6c0000000000000000602082015250565b7f4e6f74206d656d626572206f662077686974656c6973742e0000000000000000600082015250565b7f4552433732313a2062616c616e636520717565727920666f7220746865207a6560008201527f726f206164647265737300000000000000000000000000000000000000000000602082015250565b7f4552433732313a206f776e657220717565727920666f72206e6f6e657869737460008201527f656e7420746f6b656e0000000000000000000000000000000000000000000000602082015250565b7f45524337323155524953746f726167653a2055524920736574206f66206e6f6e60008201527f6578697374656e7420746f6b656e000000000000000000000000000000000000602082015250565b7f4552433732313a206d696e7420746f20746865207a65726f2061646472657373600082015250565b7f45524337323155524953746f726167653a2055524920717565727920666f722060008201527f6e6f6e6578697374656e7420746f6b656e000000000000000000000000000000602082015250565b7f4552433732313a20617070726f76656420717565727920666f72206e6f6e657860008201527f697374656e7420746f6b656e0000000000000000000000000000000000000000602082015250565b7f4f776e61626c653a2063616c6c6572206973206e6f7420746865206f776e6572600082015250565b7f4552433732313a207472616e73666572206f6620746f6b656e2074686174206960008201527f73206e6f74206f776e0000000000000000000000000000000000000000000000602082015250565b7f4552433732314d657461646174613a2055524920717565727920666f72206e6f60008201527f6e6578697374656e7420746f6b656e0000000000000000000000000000000000602082015250565b7f4552433732313a20617070726f76616c20746f2063757272656e74206f776e6560008201527f7200000000000000000000000000000000000000000000000000000000000000602082015250565b7f4552433732313a207472616e736665722063616c6c6572206973206e6f74206f60008201527f776e6572206e6f7220617070726f766564000000000000000000000000000000602082015250565b7f41646472657373206973206d656d62657220616c72656164792e000000000000600082015250565b6133e081612c06565b81146133eb57600080fd5b50565b6133f781612c18565b811461340257600080fd5b50565b61340e81612c24565b811461341957600080fd5b50565b61342581612c70565b811461343057600080fd5b5056fea2646970667358221220be698e112181f46e8de10eb3b42f18de06ce9aa090286af37521aa579225b6cd64736f6c63430008040033",
  "linkReferences": {},
  "deployedLinkReferences": {}
}