{
  "_format": "hh-sol-artifact-1",
  "contractName": "NFT",
  "sourceName": "contracts/NFT.sol",
  "abi": [
    {
      "inputs": [
        {
          "internalType": "address",
          "name": "marketplaceAddress",
          "type": "address"
        }
      ],
      "stateMutability": "nonpayable",
      "type": "constructor"
    },
    {
      "anonymous": false,
      "inputs": [
        {
          "indexed": true,
          "internalType": "address",
          "name": "owner",
          "type": "address"
        },
        {
          "indexed": true,
          "internalType": "address",
          "name": "approved",
          "type": "address"
        },
        {
          "indexed": true,
          "internalType": "uint256",
          "name": "tokenId",
          "type": "uint256"
        }
      ],
      "name": "Approval",
      "type": "event"
    },
    {
      "anonymous": false,
      "inputs": [
        {
          "indexed": true,
          "internalType": "address",
          "name": "owner",
          "type": "address"
        },
        {
          "indexed": true,
          "internalType": "address",
          "name": "operator",
          "type": "address"
        },
        {
          "indexed": false,
          "internalType": "bool",
          "name": "approved",
          "type": "bool"
        }
      ],
      "name": "ApprovalForAll",
      "type": "event"
    },
    {
      "anonymous": false,
      "inputs": [
        {
          "indexed": false,
          "internalType": "address",
          "name": "member",
          "type": "address"
        }
      ],
      "name": "MemberAdded",
      "type": "event"
    },
    {
      "anonymous": false,
      "inputs": [
        {
          "indexed": false,
          "internalType": "address",
          "name": "member",
          "type": "address"
        }
      ],
      "name": "MemberRemoved",
      "type": "event"
    },
    {
      "anonymous": false,
      "inputs": [
        {
          "indexed": true,
          "internalType": "address",
          "name": "previousOwner",
          "type": "address"
        },
        {
          "indexed": true,
          "internalType": "address",
          "name": "newOwner",
          "type": "address"
        }
      ],
      "name": "OwnershipTransferred",
      "type": "event"
    },
    {
      "anonymous": false,
      "inputs": [
        {
          "indexed": true,
          "internalType": "address",
          "name": "from",
          "type": "address"
        },
        {
          "indexed": true,
          "internalType": "address",
          "name": "to",
          "type": "address"
        },
        {
          "indexed": true,
          "internalType": "uint256",
          "name": "tokenId",
          "type": "uint256"
        }
      ],
      "name": "Transfer",
      "type": "event"
    },
    {
      "inputs": [
        {
          "internalType": "address",
          "name": "_member",
          "type": "address"
        }
      ],
      "name": "addMember",
      "outputs": [],
      "stateMutability": "nonpayable",
      "type": "function"
    },
    {
      "inputs": [
        {
          "internalType": "address",
          "name": "to",
          "type": "address"
        },
        {
          "internalType": "uint256",
          "name": "tokenId",
          "type": "uint256"
        }
      ],
      "name": "approve",
      "outputs": [],
      "stateMutability": "nonpayable",
      "type": "function"
    },
    {
      "inputs": [
        {
          "internalType": "address",
          "name": "owner",
          "type": "address"
        }
      ],
      "name": "balanceOf",
      "outputs": [
        {
          "internalType": "uint256",
          "name": "",
          "type": "uint256"
        }
      ],
      "stateMutability": "view",
      "type": "function"
    },
    {
      "inputs": [
        {
          "internalType": "string",
          "name": "tokenURI",
          "type": "string"
        }
      ],
      "name": "createToken",
      "outputs": [
        {
          "internalType": "uint256",
          "name": "",
          "type": "uint256"
        }
      ],
      "stateMutability": "nonpayable",
      "type": "function"
    },
    {
      "inputs": [
        {
          "internalType": "uint256",
          "name": "tokenId",
          "type": "uint256"
        }
      ],
      "name": "getApproved",
      "outputs": [
        {
          "internalType": "address",
          "name": "",
          "type": "address"
        }
      ],
      "stateMutability": "view",
      "type": "function"
    },
    {
      "inputs": [
        {
          "internalType": "address",
          "name": "owner",
          "type": "address"
        },
        {
          "internalType": "address",
          "name": "operator",
          "type": "address"
        }
      ],
      "name": "isApprovedForAll",
      "outputs": [
        {
          "internalType": "bool",
          "name": "",
          "type": "bool"
        }
      ],
      "stateMutability": "view",
      "type": "function"
    },
    {
      "inputs": [
        {
          "internalType": "address",
          "name": "_member",
          "type": "address"
        }
      ],
      "name": "isMember",
      "outputs": [
        {
          "internalType": "bool",
          "name": "",
          "type": "bool"
        }
      ],
      "stateMutability": "view",
      "type": "function"
    },
    {
      "inputs": [],
      "name": "name",
      "outputs": [
        {
          "internalType": "string",
          "name": "",
          "type": "string"
        }
      ],
      "stateMutability": "view",
      "type": "function"
    },
    {
      "inputs": [],
      "name": "owner",
      "outputs": [
        {
          "internalType": "address",
          "name": "",
          "type": "address"
        }
      ],
      "stateMutability": "view",
      "type": "function"
    },
    {
      "inputs": [
        {
          "internalType": "uint256",
          "name": "tokenId",
          "type": "uint256"
        }
      ],
      "name": "ownerOf",
      "outputs": [
        {
          "internalType": "address",
          "name": "",
          "type": "address"
        }
      ],
      "stateMutability": "view",
      "type": "function"
    },
    {
      "inputs": [
        {
          "internalType": "address",
          "name": "_member",
          "type": "address"
        }
      ],
      "name": "removeMember",
      "outputs": [],
      "stateMutability": "nonpayable",
      "type": "function"
    },
    {
      "inputs": [],
      "name": "renounceOwnership",
      "outputs": [],
      "stateMutability": "nonpayable",
      "type": "function"
    },
    {
      "inputs": [
        {
          "internalType": "address",
          "name": "from",
          "type": "address"
        },
        {
          "internalType": "address",
          "name": "to",
          "type": "address"
        },
        {
          "internalType": "uint256",
          "name": "tokenId",
          "type": "uint256"
        }
      ],
      "name": "safeTransferFrom",
      "outputs": [],
      "stateMutability": "nonpayable",
      "type": "function"
    },
    {
      "inputs": [
        {
          "internalType": "address",
          "name": "from",
          "type": "address"
        },
        {
          "internalType": "address",
          "name": "to",
          "type": "address"
        },
        {
          "internalType": "uint256",
          "name": "tokenId",
          "type": "uint256"
        },
        {
          "internalType": "bytes",
          "name": "_data",
          "type": "bytes"
        }
      ],
      "name": "safeTransferFrom",
      "outputs": [],
      "stateMutability": "nonpayable",
      "type": "function"
    },
    {
      "inputs": [
        {
          "internalType": "address",
          "name": "operator",
          "type": "address"
        },
        {
          "internalType": "bool",
          "name": "approved",
          "type": "bool"
        }
      ],
      "name": "setApprovalForAll",
      "outputs": [],
      "stateMutability": "nonpayable",
      "type": "function"
    },
    {
      "inputs": [
        {
          "internalType": "bytes4",
          "name": "interfaceId",
          "type": "bytes4"
        }
      ],
      "name": "supportsInterface",
      "outputs": [
        {
          "internalType": "bool",
          "name": "",
          "type": "bool"
        }
      ],
      "stateMutability": "view",
      "type": "function"
    },
    {
      "inputs": [],
      "name": "symbol",
      "outputs": [
        {
          "internalType": "string",
          "name": "",
          "type": "string"
        }
      ],
      "stateMutability": "view",
      "type": "function"
    },
    {
      "inputs": [
        {
          "internalType": "uint256",
          "name": "tokenId",
          "type": "uint256"
        }
      ],
      "name": "tokenURI",
      "outputs": [
        {
          "internalType": "string",
          "name": "",
          "type": "string"
        }
      ],
      "stateMutability": "view",
      "type": "function"
    },
    {
      "inputs": [
        {
          "internalType": "address",
          "name": "from",
          "type": "address"
        },
        {
          "internalType": "address",
          "name": "to",
          "type": "address"
        },
        {
          "internalType": "uint256",
          "name": "tokenId",
          "type": "uint256"
        }
      ],
      "name": "transferFrom",
      "outputs": [],
      "stateMutability": "nonpayable",
      "type": "function"
    },
    {
      "inputs": [
        {
          "internalType": "address",
          "name": "newOwner",
          "type": "address"
        }
      ],
      "name": "transferOwnership",
      "outputs": [],
      "stateMutability": "nonpayable",
      "type": "function"
    }
  ],
  "bytecode": "0x60806040523480156200001157600080fd5b50604051620037a0380380620037a08339818101604052810190620000379190620002d4565b6040518060400160405280600981526020017f4d657461766572736500000000000000000000000000000000000000000000008152506040518060400160405280600481526020017f4d455454000000000000000000000000000000000000000000000000000000008152508160009080519060200190620000bb9291906200020d565b508060019080519060200190620000d49291906200020d565b505050620000f7620000eb6200013f60201b60201c565b6200014760201b60201c565b80600960006101000a81548173ffffffffffffffffffffffffffffffffffffffff021916908373ffffffffffffffffffffffffffffffffffffffff16021790555050620003b3565b600033905090565b6000600760009054906101000a900473ffffffffffffffffffffffffffffffffffffffff16905081600760006101000a81548173ffffffffffffffffffffffffffffffffffffffff021916908373ffffffffffffffffffffffffffffffffffffffff1602179055508173ffffffffffffffffffffffffffffffffffffffff168173ffffffffffffffffffffffffffffffffffffffff167f8be0079c531659141344cd1fd0a4f28419497f9722a3daafe3b4186f6b6457e060405160405180910390a35050565b8280546200021b9062000334565b90600052602060002090601f0160209004810192826200023f57600085556200028b565b82601f106200025a57805160ff19168380011785556200028b565b828001600101855582156200028b579182015b828111156200028a5782518255916020019190600101906200026d565b5b5090506200029a91906200029e565b5090565b5b80821115620002b95760008160009055506001016200029f565b5090565b600081519050620002ce8162000399565b92915050565b600060208284031215620002e757600080fd5b6000620002f784828501620002bd565b91505092915050565b60006200030d8262000314565b9050919050565b600073ffffffffffffffffffffffffffffffffffffffff82169050919050565b600060028204905060018216806200034d57607f821691505b602082108114156200036457620003636200036a565b5b50919050565b7f4e487b7100000000000000000000000000000000000000000000000000000000600052602260045260246000fd5b620003a48162000300565b8114620003b057600080fd5b50565b6133dd80620003c36000396000f3fe608060405234801561001057600080fd5b506004361061012c5760003560e01c8063715018a6116100ad578063b88d4fde11610071578063b88d4fde14610341578063c87b56dd1461035d578063ca6d56dc1461038d578063e985e9c5146103a9578063f2fde38b146103d95761012c565b8063715018a6146102af5780638da5cb5b146102b957806395d89b41146102d7578063a22cb465146102f5578063a230c524146103115761012c565b806323b872dd116100f457806323b872dd146101e757806342842e0e1461020357806345576f941461021f5780636352211e1461024f57806370a082311461027f5761012c565b806301ffc9a71461013157806306fdde0314610161578063081812fc1461017f578063095ea7b3146101af5780630b1ca49a146101cb575b600080fd5b61014b60048036038101906101469190612207565b6103f5565b60405161015891906126fd565b60405180910390f35b6101696104d7565b6040516101769190612718565b60405180910390f35b6101996004803603810190610194919061229a565b610569565b6040516101a69190612696565b60405180910390f35b6101c960048036038101906101c491906121cb565b6105ee565b005b6101e560048036038101906101e09190612060565b610706565b005b61020160048036038101906101fc91906120c5565b6107d7565b005b61021d600480360381019061021891906120c5565b610837565b005b61023960048036038101906102349190612259565b610857565b60405161024691906129da565b60405180910390f35b6102696004803603810190610264919061229a565b610903565b6040516102769190612696565b60405180910390f35b61029960048036038101906102949190612060565b6109b5565b6040516102a691906129da565b60405180910390f35b6102b7610a6d565b005b6102c1610af5565b6040516102ce9190612696565b60405180910390f35b6102df610b1f565b6040516102ec9190612718565b60405180910390f35b61030f600480360381019061030a919061218f565b610bb1565b005b61032b60048036038101906103269190612060565b610bc7565b60405161033891906126fd565b60405180910390f35b61035b60048036038101906103569190612114565b610c1d565b005b6103776004803603810190610372919061229a565b610c7f565b6040516103849190612718565b60405180910390f35b6103a760048036038101906103a29190612060565b610dd1565b005b6103c360048036038101906103be9190612089565b610eac565b6040516103d091906126fd565b60405180910390f35b6103f360048036038101906103ee9190612060565b610f18565b005b60007f80ac58cd000000000000000000000000000000000000000000000000000000007bffffffffffffffffffffffffffffffffffffffffffffffffffffffff1916827bffffffffffffffffffffffffffffffffffffffffffffffffffffffff191614806104c057507f5b5e139f000000000000000000000000000000000000000000000000000000007bffffffffffffffffffffffffffffffffffffffffffffffffffffffff1916827bffffffffffffffffffffffffffffffffffffffffffffffffffffffff1916145b806104d057506104cf82611010565b5b9050919050565b6060600080546104e690612c30565b80601f016020809104026020016040519081016040528092919081815260200182805461051290612c30565b801561055f5780601f106105345761010080835404028352916020019161055f565b820191906000526020600020905b81548152906001019060200180831161054257829003601f168201915b5050505050905090565b60006105748261107a565b6105b3576040517f08c379a00000000000000000000000000000000000000000000000000000000081526004016105aa906128fa565b60405180910390fd5b6004600083815260200190815260200160002060009054906101000a900473ffffffffffffffffffffffffffffffffffffffff169050919050565b60006105f982610903565b90508073ffffffffffffffffffffffffffffffffffffffff168373ffffffffffffffffffffffffffffffffffffffff16141561066a576040517f08c379a00000000000000000000000000000000000000000000000000000000081526004016106619061297a565b60405180910390fd5b8073ffffffffffffffffffffffffffffffffffffffff166106896110e6565b73ffffffffffffffffffffffffffffffffffffffff1614806106b857506106b7816106b26110e6565b610eac565b5b6106f7576040517f08c379a00000000000000000000000000000000000000000000000000000000081526004016106ee9061281a565b60405180910390fd5b61070183836110ee565b505050565b61070f81610bc7565b61074e576040517f08c379a00000000000000000000000000000000000000000000000000000000081526004016107459061283a565b60405180910390fd5b600a60008273ffffffffffffffffffffffffffffffffffffffff1673ffffffffffffffffffffffffffffffffffffffff16815260200190815260200160002060006101000a81549060ff02191690557f6e76fb4c77256006d9c38ec7d82b45a8c8f3c27b1d6766fffc42dfb8de684492816040516107cc9190612696565b60405180910390a150565b6107e86107e26110e6565b826111a7565b610827576040517f08c379a000000000000000000000000000000000000000000000000000000000815260040161081e9061299a565b60405180910390fd5b610832838383611285565b505050565b61085283838360405180602001604052806000815250610c1d565b505050565b600061086360086114e1565b600061086f60086114f7565b905061087a33610bc7565b6108b9576040517f08c379a00000000000000000000000000000000000000000000000000000000081526004016108b0906127fa565b60405180910390fd5b6108c33382611505565b6108cd81846116d3565b6108f933600960009054906101000a900473ffffffffffffffffffffffffffffffffffffffff16610eac565b5080915050919050565b6000806002600084815260200190815260200160002060009054906101000a900473ffffffffffffffffffffffffffffffffffffffff169050600073ffffffffffffffffffffffffffffffffffffffff168173ffffffffffffffffffffffffffffffffffffffff1614156109ac576040517f08c379a00000000000000000000000000000000000000000000000000000000081526004016109a39061287a565b60405180910390fd5b80915050919050565b60008073ffffffffffffffffffffffffffffffffffffffff168273ffffffffffffffffffffffffffffffffffffffff161415610a26576040517f08c379a0000000000000000000000000000000000000000000000000000000008152600401610a1d9061285a565b60405180910390fd5b600360008373ffffffffffffffffffffffffffffffffffffffff1673ffffffffffffffffffffffffffffffffffffffff168152602001908152602001600020549050919050565b610a756110e6565b73ffffffffffffffffffffffffffffffffffffffff16610a93610af5565b73ffffffffffffffffffffffffffffffffffffffff1614610ae9576040517f08c379a0000000000000000000000000000000000000000000000000000000008152600401610ae09061291a565b60405180910390fd5b610af36000611747565b565b6000600760009054906101000a900473ffffffffffffffffffffffffffffffffffffffff16905090565b606060018054610b2e90612c30565b80601f0160208091040260200160405190810160405280929190818152602001828054610b5a90612c30565b8015610ba75780601f10610b7c57610100808354040283529160200191610ba7565b820191906000526020600020905b815481529060010190602001808311610b8a57829003601f168201915b5050505050905090565b610bc3610bbc6110e6565b838361180d565b5050565b6000600a60008373ffffffffffffffffffffffffffffffffffffffff1673ffffffffffffffffffffffffffffffffffffffff16815260200190815260200160002060009054906101000a900460ff169050919050565b610c2e610c286110e6565b836111a7565b610c6d576040517f08c379a0000000000000000000000000000000000000000000000000000000008152600401610c649061299a565b60405180910390fd5b610c798484848461197a565b50505050565b6060610c8a8261107a565b610cc9576040517f08c379a0000000000000000000000000000000000000000000000000000000008152600401610cc0906128da565b60405180910390fd5b6000600660008481526020019081526020016000208054610ce990612c30565b80601f0160208091040260200160405190810160405280929190818152602001828054610d1590612c30565b8015610d625780601f10610d3757610100808354040283529160200191610d62565b820191906000526020600020905b815481529060010190602001808311610d4557829003601f168201915b505050505090506000610d736119d6565b9050600081511415610d89578192505050610dcc565b600082511115610dbe578082604051602001610da6929190612672565b60405160208183030381529060405292505050610dcc565b610dc7846119ed565b925050505b919050565b610dda81610bc7565b15610e1a576040517f08c379a0000000000000000000000000000000000000000000000000000000008152600401610e11906129ba565b60405180910390fd5b6001600a60008373ffffffffffffffffffffffffffffffffffffffff1673ffffffffffffffffffffffffffffffffffffffff16815260200190815260200160002060006101000a81548160ff0219169083151502179055507fb251eb052afc73ffd02ffe85ad79990a8b3fed60d76dbc2fa2fdd7123dffd91481604051610ea19190612696565b60405180910390a150565b6000610eb88383611a94565b80610f105750600960009054906101000a900473ffffffffffffffffffffffffffffffffffffffff1673ffffffffffffffffffffffffffffffffffffffff168273ffffffffffffffffffffffffffffffffffffffff16145b905092915050565b610f206110e6565b73ffffffffffffffffffffffffffffffffffffffff16610f3e610af5565b73ffffffffffffffffffffffffffffffffffffffff1614610f94576040517f08c379a0000000000000000000000000000000000000000000000000000000008152600401610f8b9061291a565b60405180910390fd5b600073ffffffffffffffffffffffffffffffffffffffff168173ffffffffffffffffffffffffffffffffffffffff161415611004576040517f08c379a0000000000000000000000000000000000000000000000000000000008152600401610ffb9061275a565b60405180910390fd5b61100d81611747565b50565b60007f01ffc9a7000000000000000000000000000000000000000000000000000000007bffffffffffffffffffffffffffffffffffffffffffffffffffffffff1916827bffffffffffffffffffffffffffffffffffffffffffffffffffffffff1916149050919050565b60008073ffffffffffffffffffffffffffffffffffffffff166002600084815260200190815260200160002060009054906101000a900473ffffffffffffffffffffffffffffffffffffffff1673ffffffffffffffffffffffffffffffffffffffff1614159050919050565b600033905090565b816004600083815260200190815260200160002060006101000a81548173ffffffffffffffffffffffffffffffffffffffff021916908373ffffffffffffffffffffffffffffffffffffffff160217905550808273ffffffffffffffffffffffffffffffffffffffff1661116183610903565b73ffffffffffffffffffffffffffffffffffffffff167f8c5be1e5ebec7d5bd14f71427d1e84f3dd0314c0f7b2291e5b200ac8c7c3b92560405160405180910390a45050565b60006111b28261107a565b6111f1576040517f08c379a00000000000000000000000000000000000000000000000000000000081526004016111e8906127da565b60405180910390fd5b60006111fc83610903565b90508073ffffffffffffffffffffffffffffffffffffffff168473ffffffffffffffffffffffffffffffffffffffff16148061126b57508373ffffffffffffffffffffffffffffffffffffffff1661125384610569565b73ffffffffffffffffffffffffffffffffffffffff16145b8061127c575061127b8185610eac565b5b91505092915050565b8273ffffffffffffffffffffffffffffffffffffffff166112a582610903565b73ffffffffffffffffffffffffffffffffffffffff16146112fb576040517f08c379a00000000000000000000000000000000000000000000000000000000081526004016112f29061293a565b60405180910390fd5b600073ffffffffffffffffffffffffffffffffffffffff168273ffffffffffffffffffffffffffffffffffffffff16141561136b576040517f08c379a00000000000000000000000000000000000000000000000000000000081526004016113629061279a565b60405180910390fd5b611376838383611b28565b6113816000826110ee565b6001600360008573ffffffffffffffffffffffffffffffffffffffff1673ffffffffffffffffffffffffffffffffffffffff16815260200190815260200160002060008282546113d19190612b46565b925050819055506001600360008473ffffffffffffffffffffffffffffffffffffffff1673ffffffffffffffffffffffffffffffffffffffff16815260200190815260200160002060008282546114289190612abf565b92505081905550816002600083815260200190815260200160002060006101000a81548173ffffffffffffffffffffffffffffffffffffffff021916908373ffffffffffffffffffffffffffffffffffffffff160217905550808273ffffffffffffffffffffffffffffffffffffffff168473ffffffffffffffffffffffffffffffffffffffff167fddf252ad1be2c89b69c2b068fc378daa952ba7f163c4a11628f55a4df523b3ef60405160405180910390a4505050565b6001816000016000828254019250508190555050565b600081600001549050919050565b600073ffffffffffffffffffffffffffffffffffffffff168273ffffffffffffffffffffffffffffffffffffffff161415611575576040517f08c379a000000000000000000000000000000000000000000000000000000000815260040161156c906128ba565b60405180910390fd5b61157e8161107a565b156115be576040517f08c379a00000000000000000000000000000000000000000000000000000000081526004016115b59061277a565b60405180910390fd5b6115ca60008383611b28565b6001600360008473ffffffffffffffffffffffffffffffffffffffff1673ffffffffffffffffffffffffffffffffffffffff168152602001908152602001600020600082825461161a9190612abf565b92505081905550816002600083815260200190815260200160002060006101000a81548173ffffffffffffffffffffffffffffffffffffffff021916908373ffffffffffffffffffffffffffffffffffffffff160217905550808273ffffffffffffffffffffffffffffffffffffffff16600073ffffffffffffffffffffffffffffffffffffffff167fddf252ad1be2c89b69c2b068fc378daa952ba7f163c4a11628f55a4df523b3ef60405160405180910390a45050565b6116dc8261107a565b61171b576040517f08c379a00000000000000000000000000000000000000000000000000000000081526004016117129061289a565b60405180910390fd5b80600660008481526020019081526020016000209080519060200190611742929190611e84565b505050565b6000600760009054906101000a900473ffffffffffffffffffffffffffffffffffffffff16905081600760006101000a81548173ffffffffffffffffffffffffffffffffffffffff021916908373ffffffffffffffffffffffffffffffffffffffff1602179055508173ffffffffffffffffffffffffffffffffffffffff168173ffffffffffffffffffffffffffffffffffffffff167f8be0079c531659141344cd1fd0a4f28419497f9722a3daafe3b4186f6b6457e060405160405180910390a35050565b8173ffffffffffffffffffffffffffffffffffffffff168373ffffffffffffffffffffffffffffffffffffffff16141561187c576040517f08c379a0000000000000000000000000000000000000000000000000000000008152600401611873906127ba565b60405180910390fd5b80600560008573ffffffffffffffffffffffffffffffffffffffff1673ffffffffffffffffffffffffffffffffffffffff16815260200190815260200160002060008473ffffffffffffffffffffffffffffffffffffffff1673ffffffffffffffffffffffffffffffffffffffff16815260200190815260200160002060006101000a81548160ff0219169083151502179055508173ffffffffffffffffffffffffffffffffffffffff168373ffffffffffffffffffffffffffffffffffffffff167f17307eab39ab6107e8899845ad3d59bd9653f200f220920489ca2b5937696c318360405161196d91906126fd565b60405180910390a3505050565b611985848484611285565b61199184848484611b2d565b6119d0576040517f08c379a00000000000000000000000000000000000000000000000000000000081526004016119c79061273a565b60405180910390fd5b50505050565b606060405180602001604052806000815250905090565b60606119f88261107a565b611a37576040517f08c379a0000000000000000000000000000000000000000000000000000000008152600401611a2e9061295a565b60405180910390fd5b6000611a416119d6565b90506000815111611a615760405180602001604052806000815250611a8c565b80611a6b84611cc4565b604051602001611a7c929190612672565b6040516020818303038152906040525b915050919050565b6000600560008473ffffffffffffffffffffffffffffffffffffffff1673ffffffffffffffffffffffffffffffffffffffff16815260200190815260200160002060008373ffffffffffffffffffffffffffffffffffffffff1673ffffffffffffffffffffffffffffffffffffffff16815260200190815260200160002060009054906101000a900460ff16905092915050565b505050565b6000611b4e8473ffffffffffffffffffffffffffffffffffffffff16611e71565b15611cb7578373ffffffffffffffffffffffffffffffffffffffff1663150b7a02611b776110e6565b8786866040518563ffffffff1660e01b8152600401611b9994939291906126b1565b602060405180830381600087803b158015611bb357600080fd5b505af1925050508015611be457506040513d601f19601f82011682018060405250810190611be19190612230565b60015b611c67573d8060008114611c14576040519150601f19603f3d011682016040523d82523d6000602084013e611c19565b606091505b50600081511415611c5f576040517f08c379a0000000000000000000000000000000000000000000000000000000008152600401611c569061273a565b60405180910390fd5b805181602001fd5b63150b7a0260e01b7bffffffffffffffffffffffffffffffffffffffffffffffffffffffff1916817bffffffffffffffffffffffffffffffffffffffffffffffffffffffff191614915050611cbc565b600190505b949350505050565b60606000821415611d0c576040518060400160405280600181526020017f30000000000000000000000000000000000000000000000000000000000000008152509050611e6c565b600082905060005b60008214611d3e578080611d2790612c93565b915050600a82611d379190612b15565b9150611d14565b60008167ffffffffffffffff811115611d80577f4e487b7100000000000000000000000000000000000000000000000000000000600052604160045260246000fd5b6040519080825280601f01601f191660200182016040528015611db25781602001600182028036833780820191505090505b5090505b60008514611e6557600182611dcb9190612b46565b9150600a85611dda9190612cdc565b6030611de69190612abf565b60f81b818381518110611e22577f4e487b7100000000000000000000000000000000000000000000000000000000600052603260045260246000fd5b60200101907effffffffffffffffffffffffffffffffffffffffffffffffffffffffffffff1916908160001a905350600a85611e5e9190612b15565b9450611db6565b8093505050505b919050565b600080823b905060008111915050919050565b828054611e9090612c30565b90600052602060002090601f016020900481019282611eb25760008555611ef9565b82601f10611ecb57805160ff1916838001178555611ef9565b82800160010185558215611ef9579182015b82811115611ef8578251825591602001919060010190611edd565b5b509050611f069190611f0a565b5090565b5b80821115611f23576000816000905550600101611f0b565b5090565b6000611f3a611f3584612a1a565b6129f5565b905082815260208101848484011115611f5257600080fd5b611f5d848285612bee565b509392505050565b6000611f78611f7384612a4b565b6129f5565b905082815260208101848484011115611f9057600080fd5b611f9b848285612bee565b509392505050565b600081359050611fb28161334b565b92915050565b600081359050611fc781613362565b92915050565b600081359050611fdc81613379565b92915050565b600081519050611ff181613379565b92915050565b600082601f83011261200857600080fd5b8135612018848260208601611f27565b91505092915050565b600082601f83011261203257600080fd5b8135612042848260208601611f65565b91505092915050565b60008135905061205a81613390565b92915050565b60006020828403121561207257600080fd5b600061208084828501611fa3565b91505092915050565b6000806040838503121561209c57600080fd5b60006120aa85828601611fa3565b92505060206120bb85828601611fa3565b9150509250929050565b6000806000606084860312156120da57600080fd5b60006120e886828701611fa3565b93505060206120f986828701611fa3565b925050604061210a8682870161204b565b9150509250925092565b6000806000806080858703121561212a57600080fd5b600061213887828801611fa3565b945050602061214987828801611fa3565b935050604061215a8782880161204b565b925050606085013567ffffffffffffffff81111561217757600080fd5b61218387828801611ff7565b91505092959194509250565b600080604083850312156121a257600080fd5b60006121b085828601611fa3565b92505060206121c185828601611fb8565b9150509250929050565b600080604083850312156121de57600080fd5b60006121ec85828601611fa3565b92505060206121fd8582860161204b565b9150509250929050565b60006020828403121561221957600080fd5b600061222784828501611fcd565b91505092915050565b60006020828403121561224257600080fd5b600061225084828501611fe2565b91505092915050565b60006020828403121561226b57600080fd5b600082013567ffffffffffffffff81111561228557600080fd5b61229184828501612021565b91505092915050565b6000602082840312156122ac57600080fd5b60006122ba8482850161204b565b91505092915050565b6122cc81612b7a565b82525050565b6122db81612b8c565b82525050565b60006122ec82612a7c565b6122f68185612a92565b9350612306818560208601612bfd565b61230f81612dc9565b840191505092915050565b600061232582612a87565b61232f8185612aa3565b935061233f818560208601612bfd565b61234881612dc9565b840191505092915050565b600061235e82612a87565b6123688185612ab4565b9350612378818560208601612bfd565b80840191505092915050565b6000612391603283612aa3565b915061239c82612dda565b604082019050919050565b60006123b4602683612aa3565b91506123bf82612e29565b604082019050919050565b60006123d7601c83612aa3565b91506123e282612e78565b602082019050919050565b60006123fa602483612aa3565b915061240582612ea1565b604082019050919050565b600061241d601983612aa3565b915061242882612ef0565b602082019050919050565b6000612440602c83612aa3565b915061244b82612f19565b604082019050919050565b6000612463601683612aa3565b915061246e82612f68565b602082019050919050565b6000612486603883612aa3565b915061249182612f91565b604082019050919050565b60006124a9601883612aa3565b91506124b482612fe0565b602082019050919050565b60006124cc602a83612aa3565b91506124d782613009565b604082019050919050565b60006124ef602983612aa3565b91506124fa82613058565b604082019050919050565b6000612512602e83612aa3565b915061251d826130a7565b604082019050919050565b6000612535602083612aa3565b9150612540826130f6565b602082019050919050565b6000612558603183612aa3565b91506125638261311f565b604082019050919050565b600061257b602c83612aa3565b91506125868261316e565b604082019050919050565b600061259e602083612aa3565b91506125a9826131bd565b602082019050919050565b60006125c1602983612aa3565b91506125cc826131e6565b604082019050919050565b60006125e4602f83612aa3565b91506125ef82613235565b604082019050919050565b6000612607602183612aa3565b915061261282613284565b604082019050919050565b600061262a603183612aa3565b9150612635826132d3565b604082019050919050565b600061264d601a83612aa3565b915061265882613322565b602082019050919050565b61266c81612be4565b82525050565b600061267e8285612353565b915061268a8284612353565b91508190509392505050565b60006020820190506126ab60008301846122c3565b92915050565b60006080820190506126c660008301876122c3565b6126d360208301866122c3565b6126e06040830185612663565b81810360608301526126f281846122e1565b905095945050505050565b600060208201905061271260008301846122d2565b92915050565b60006020820190508181036000830152612732818461231a565b905092915050565b6000602082019050818103600083015261275381612384565b9050919050565b60006020820190508181036000830152612773816123a7565b9050919050565b60006020820190508181036000830152612793816123ca565b9050919050565b600060208201905081810360008301526127b3816123ed565b9050919050565b600060208201905081810360008301526127d381612410565b9050919050565b600060208201905081810360008301526127f381612433565b9050919050565b6000602082019050818103600083015261281381612456565b9050919050565b6000602082019050818103600083015261283381612479565b9050919050565b600060208201905081810360008301526128538161249c565b9050919050565b60006020820190508181036000830152612873816124bf565b9050919050565b60006020820190508181036000830152612893816124e2565b9050919050565b600060208201905081810360008301526128b381612505565b9050919050565b600060208201905081810360008301526128d381612528565b9050919050565b600060208201905081810360008301526128f38161254b565b9050919050565b600060208201905081810360008301526129138161256e565b9050919050565b6000602082019050818103600083015261293381612591565b9050919050565b60006020820190508181036000830152612953816125b4565b9050919050565b60006020820190508181036000830152612973816125d7565b9050919050565b60006020820190508181036000830152612993816125fa565b9050919050565b600060208201905081810360008301526129b38161261d565b9050919050565b600060208201905081810360008301526129d381612640565b9050919050565b60006020820190506129ef6000830184612663565b92915050565b60006129ff612a10565b9050612a0b8282612c62565b919050565b6000604051905090565b600067ffffffffffffffff821115612a3557612a34612d9a565b5b612a3e82612dc9565b9050602081019050919050565b600067ffffffffffffffff821115612a6657612a65612d9a565b5b612a6f82612dc9565b9050602081019050919050565b600081519050919050565b600081519050919050565b600082825260208201905092915050565b600082825260208201905092915050565b600081905092915050565b6000612aca82612be4565b9150612ad583612be4565b9250827fffffffffffffffffffffffffffffffffffffffffffffffffffffffffffffffff03821115612b0a57612b09612d0d565b5b828201905092915050565b6000612b2082612be4565b9150612b2b83612be4565b925082612b3b57612b3a612d3c565b5b828204905092915050565b6000612b5182612be4565b9150612b5c83612be4565b925082821015612b6f57612b6e612d0d565b5b828203905092915050565b6000612b8582612bc4565b9050919050565b60008115159050919050565b60007fffffffff0000000000000000000000000000000000000000000000000000000082169050919050565b600073ffffffffffffffffffffffffffffffffffffffff82169050919050565b6000819050919050565b82818337600083830152505050565b60005b83811015612c1b578082015181840152602081019050612c00565b83811115612c2a576000848401525b50505050565b60006002820490506001821680612c4857607f821691505b60208210811415612c5c57612c5b612d6b565b5b50919050565b612c6b82612dc9565b810181811067ffffffffffffffff82111715612c8a57612c89612d9a565b5b80604052505050565b6000612c9e82612be4565b91507fffffffffffffffffffffffffffffffffffffffffffffffffffffffffffffffff821415612cd157612cd0612d0d565b5b600182019050919050565b6000612ce782612be4565b9150612cf283612be4565b925082612d0257612d01612d3c565b5b828206905092915050565b7f4e487b7100000000000000000000000000000000000000000000000000000000600052601160045260246000fd5b7f4e487b7100000000000000000000000000000000000000000000000000000000600052601260045260246000fd5b7f4e487b7100000000000000000000000000000000000000000000000000000000600052602260045260246000fd5b7f4e487b7100000000000000000000000000000000000000000000000000000000600052604160045260246000fd5b6000601f19601f8301169050919050565b7f4552433732313a207472616e7366657220746f206e6f6e20455243373231526560008201527f63656976657220696d706c656d656e7465720000000000000000000000000000602082015250565b7f4f776e61626c653a206e6577206f776e657220697320746865207a65726f206160008201527f6464726573730000000000000000000000000000000000000000000000000000602082015250565b7f4552433732313a20746f6b656e20616c7265616479206d696e74656400000000600082015250565b7f4552433732313a207472616e7366657220746f20746865207a65726f2061646460008201527f7265737300000000000000000000000000000000000000000000000000000000602082015250565b7f4552433732313a20617070726f766520746f2063616c6c657200000000000000600082015250565b7f4552433732313a206f70657261746f7220717565727920666f72206e6f6e657860008201527f697374656e7420746f6b656e0000000000000000000000000000000000000000602082015250565b7f43616c6c6572206973206e6f742061206d656d62657200000000000000000000600082015250565b7f4552433732313a20617070726f76652063616c6c6572206973206e6f74206f7760008201527f6e6572206e6f7220617070726f76656420666f7220616c6c0000000000000000602082015250565b7f4e6f74206d656d626572206f662077686974656c6973742e0000000000000000600082015250565b7f4552433732313a2062616c616e636520717565727920666f7220746865207a6560008201527f726f206164647265737300000000000000000000000000000000000000000000602082015250565b7f4552433732313a206f776e657220717565727920666f72206e6f6e657869737460008201527f656e7420746f6b656e0000000000000000000000000000000000000000000000602082015250565b7f45524337323155524953746f726167653a2055524920736574206f66206e6f6e60008201527f6578697374656e7420746f6b656e000000000000000000000000000000000000602082015250565b7f4552433732313a206d696e7420746f20746865207a65726f2061646472657373600082015250565b7f45524337323155524953746f726167653a2055524920717565727920666f722060008201527f6e6f6e6578697374656e7420746f6b656e000000000000000000000000000000602082015250565b7f4552433732313a20617070726f76656420717565727920666f72206e6f6e657860008201527f697374656e7420746f6b656e0000000000000000000000000000000000000000602082015250565b7f4f776e61626c653a2063616c6c6572206973206e6f7420746865206f776e6572600082015250565b7f4552433732313a207472616e73666572206f6620746f6b656e2074686174206960008201527f73206e6f74206f776e0000000000000000000000000000000000000000000000602082015250565b7f4552433732314d657461646174613a2055524920717565727920666f72206e6f60008201527f6e6578697374656e7420746f6b656e0000000000000000000000000000000000602082015250565b7f4552433732313a20617070726f76616c20746f2063757272656e74206f776e6560008201527f7200000000000000000000000000000000000000000000000000000000000000602082015250565b7f4552433732313a207472616e736665722063616c6c6572206973206e6f74206f60008201527f776e6572206e6f7220617070726f766564000000000000000000000000000000602082015250565b7f41646472657373206973206d656d62657220616c72656164792e000000000000600082015250565b61335481612b7a565b811461335f57600080fd5b50565b61336b81612b8c565b811461337657600080fd5b50565b61338281612b98565b811461338d57600080fd5b50565b61339981612be4565b81146133a457600080fd5b5056fea2646970667358221220f90579cb712b28b6ab11d4418b99df29a53aa3121f4a783d8c4a3fb902c1954f64736f6c63430008040033",
  "linkReferences": {},
  "deployedLinkReferences": {}
}